:100000000C942D000C945E050C9487050C94B0059F
:100010000C942B060C9448070C9448070C94020689
:100020000C9448070C9448070C94D9050C94480785
:100030000C9448070C9432050C9448070C9448071C
:100040000C94C3040C9448070C9448070C9448077C
:100050000C9448070060007F800011241FBECFE58C
:10006000D8E0DEBFCDBFE4E5F0E040E017C0B591D9
:10007000A59135912591059107FD0CC0959185912C
:10008000EF01F92FE82F05900D92A217B307D9F7CA
:10009000FE0104C01D92A217B307E1F7E935F4078A
:0E00A00031F70E94B4000C942007F894FFCFB3
:1000AE004F626A6563742044657465637465642089
:1000BE002D20436F756E743A00300D0A000D0A0044
:1000CE0053797374656D2052656164790D0A00452C
:1000DE006D657267656E63792053746F702041632E
:1000EE00746976617465640D0A00436F6E76657986
:1000FE006F722052756E6E696E670D0A00436F6ED9
:10010E007665796F722053746F707065640D0A0096
:10011E005370656564204C6576656C3A204C6F773C
:10012E000D0A005370656564204C6576656C3A2047
:10013E004D656469756D0D0A005370656564204CDC
:0D014E006576656C3A20486967680D0A0007
:06015B000001020406078A
:0601610000010203040589
:100168000E94F0026EEC70E080E00E9454068091DC
:1001780077008111FCCF80917B00813009F541E047
:1001880062E082E00E94630340E060E082E00E9457
:10019800630340E061E082E00E94630380917A009B
:1001A800813029F480E00E943E0710927A006DEDBC
:1001B80070E080E00E94540681E080937700D7CFFA
:1001C80060E081E00E944104811104C081E08093D5
:1001D8007D0002C010927D0061E081E00E94410430
:1001E800811104C081E080937C0002C010927C00E1
:1001F80080917D008130D9F480917A00811117C0F7
:1002080085E50E943E0781E080937A0010927D0088
:1002180041E060E082E00E94630340E061E082E048
:100228000E94630368EF70E080E00E9454068091AA
:100238007C008130D1F480917A008130B1F480E083
:100248000E943E0710927A0010927C0040E060E025
:1002580082E00E94630341E061E082E00E94630360
:100268006BE071E080E00E94540680917A00813052
:10027800C9F580E00E94C306853521E0920730F079
:100288008A3A924030F48AEAC2E005C085E5C1E0C6
:1002980002C08FEFC3E090917400C91739F00E9433
:1002A8003E07C093740081E08093780080917800C5
:1002B8008130E1F4C13031F46EE171E080E00E94F8
:1002C80054060DC0C23031F461E371E080E00E9451
:1002D800540605C067E471E080E00E94540610925D
:1002E800780004C01092790010927600809179000D
:1002F800813009F03CCF80917A00813009F037CF06
:1003080080916C0090916D00019690936D008093A0
:100318006C00109279001092760041E061E082E072
:100328000E94630380916C0090916D000E94D3033A
:020338001ECFD6
:10033A00683008F0D0C08130D1F138F0823009F449
:10034A0068C0833009F497C00895413059F42AB33C
:10035A0081E090E002C0880F991F6A95E2F7822B2C
:10036A008ABB0895411110C02AB381E090E002C00F
:10037A00880F991F6A95E2F78095922F98239ABB66
:10038A009BB389238BBB0895423009F0A4C02AB3DA
:10039A0081E090E002C0880F991F6A95E2F7982FD2
:1003AA00909592239ABB9BB3892B8BBB08954130BE
:1003BA0059F427B381E090E002C0880F991F6A952B
:1003CA00E2F7822B87BB0895411110C027B381E061
:1003DA0090E002C0880F991F6A95E2F78095922FE4
:1003EA00982397BB98B3892388BB0895423009F0B4
:1003FA0072C027B381E090E002C0880F991F6A9506
:10040A00E2F7982F9095922397BB98B3892B88BBD4
:10041A000895413059F424B381E090E002C0880F76
:10042A00991F6A95E2F7822B84BB0895411110C087
:10043A0024B381E090E002C0880F991F6A95E2F721
:10044A008095922F982394BB95B3892385BB0895F1
:10045A00423009F040C024B381E090E002C0880F26
:10046A00991F6A95E2F7982F9095922394BB95B3BA
:10047A00892B85BB0895413059F421B381E090E07E
:10048A0002C0880F991F6A95E2F7822B81BB0895F3
:10049A00411110C021B381E090E002C0880F991F7A
:1004AA006A95E2F78095922F982391BB92B389239C
:1004BA0082BB0895423079F421B381E090E002C012
:1004CA00880F991F6A95E2F7982F9095922391BB0E
:0804DA0092B3892B82BB089547
:1004E200813059F120F0823009F453C0089583B766
:1004F200807883BF611104C083B7886483BF05C05D
:10050200613019F483B7806483BF411104C083B79B
:10051200806283BF05C0413019F483B7806383BF13
:1005220093B730E040E02F593E4F4F4FF90184918D
:1005320047FD8081892B83BF08958FB58C738FBD52
:100542008EB5807E8EBD611107C08FB581608FBD73
:100552008EB588608EBD05C0613019F48FB581609B
:100562008FBD411104C08FB580688FBD05C0413079
:1005720019F48FB5806C8FBD9EB530E040E02F59E5
:100582003E4F4F4FF901849147FD8081892B8EBDEB
:10059200089585B5807885BD611104C085B58864EC
:1005A20085BD05C0613019F485B5806485BD4111F2
:1005B20004C085B5806285BD05C0413019F485B59A
:1005C200806385BD95B530E040E0255A3E4F4F4FE0
:0E05D200F901849147FD8081892B85BD089534
:1005E00041E060E082E00E949D0141E061E082E044
:1005F0000E949D0141E062E082E00E949D0140E096
:1006000060E082E00E94630340E061E082E00E94DB
:10061000630340E062E082E00E94630340E060E048
:1006200081E00E949D0141E060E081E00E9463035F
:1006300040E061E081E00E949D0141E061E081E0F5
:100640000E94630340E062E083E00E949D0141E07C
:1006500062E083E00E94630340E063E083E00E9485
:100660009D0141E063E083E00E9463030E949B06DA
:100670000E940A0780E00E943E0767E081E00E9436
:10068000150723E040E060E080E00E94710220E076
:1006900040E060E875E280E090E00E94FF0462E0E4
:1006A00080E00E94350763ED76E080E00E94FE0660
:1006B00062E081E00E9435076BE277E081E00E9412
:0606C000FE067894089587
:1006C600683008F06CC0813001F130F08230B1F151
:1006D600833009F44CC00895413059F42BB381E0BE
:1006E60090E002C0880F991F6A95E2F7822B8BBBB8
:1006F60008952BB381E090E002C0880F991F6A9598
:10070600E2F7809582238BBB0895413059F428B3D4
:1007160081E090E002C0880F991F6A95E2F7822B6C
:1007260088BB089528B381E090E002C0880F991F26
:100736006A95E2F78095822388BB0895413059F483
:1007460025B381E090E002C0880F991F6A95E2F711
:10075600822B85BB089525B381E090E002C0880F07
:10076600991F6A95E2F78095822385BB08954130EB
:1007760059F422B381E090E002C0880F991F6A9570
:10078600E2F7822B82BB089522B381E090E002C09B
:10079600880F991F6A95E2F78095822382BB089598
:1007A600FF920F931F93CF93DF9300D000D00F9249
:1007B600CDB7DEB78C016EEA70E080E00E94540689
:1007C60001151105A1F567EC70E080E00E94540662
:1007D6004AC09801ADECBCEC0E94E206969587955E
:1007E60096958795969587959C01220F331F880FBE
:1007F600991F880F991F880F991F820F931F9801C1
:10080600281B390BC901805DE1E0F0E0EC0FFD1F0C
:10081600EF0DF11D808398010E94E2068C0116956A
:1008260007951695079516950795F39401C0F12C33
:100836000115110571F610E00FC0EF2DF0E03197AC
:10084600E11BF10981E090E08C0F9D1FE80FF91F75
:1008560080810E9444071F5F1F1578F36BEC70E0E0
:1008660080E00E9454060F900F900F900F900F900B
:0C087600DF91CF911F910F91FF9008952A
:100882006830A0F5813089F028F08230C9F08330D9
:1008920011F12EC089B390E002C0959587956A95B3
:1008A200E2F780FD27C080E0089586B390E002C0A1
:1008B200959587956A95E2F780FD1EC080E00895C0
:1008C20083B390E002C0959587956A95E2F780FD23
:1008D20015C080E0089580B390E002C09595879599
:1008E2006A95E2F780FD0CC080E0089580E00895EB
:1008F20080E0089581E0089581E0089581E00895FF
:0409020081E00895F3
:100906008130D9F018F0823079F1089585B78C7F5F
:1009160085BF6623A1F1613021F485B7816085BF6B
:100926000895623021F485B7826085BF08956330EB
:1009360031F585B7836085BF089585B7837F85BF09
:100946006623E9F0613021F485B7846085BF089598
:10095600623021F485B7886085BF0895633079F4E5
:1009660085B78C6085BF0895623021F484B78F7B8C
:1009760084BF0895633019F484B7806484BF0895F2
:100986001F920F920FB60F9211242F933F934F93FE
:100996005F936F937F938F939F93AF93BF93EF93E1
:1009A600FF9384B190E090936F0080936E0085B1C1
:1009B60020E0382F80916E0090916F00822B932B50
:1009C60090936F0080936E00E0917000F09171003B
:1009D600309709F00995FF91EF91BF91AF919F91E3
:1009E6008F917F916F915F914F913F912F910F90D2
:0809F6000FBE0F901F90189531
:1009FE00CF93DF93D42FC22FDC01CB01880F991F29
:100A0E00AA1FBB1F880F991FAA1FBB1F9C01AD01F8
:100A1E00220F331F441F551F220F331F441F551F14
:100A2E0060E072E18AE790E00E9479062150310978
:100A3E0029B9832F8F7080BDD370D295D07FC170AE
:100A4E00CC0FCC0FCC0FCD2BC668C0BD88E18AB9B8
:060A5E00DF91CF91089525
:100A64001F920F920FB60F9211242F933F934F931F
:100A74005F936F937F938F939F93AF93BF93EF9302
:100A8400FF938CB180937E00E0917200F09173002B
:100A9400309709F00995FF91EF91BF91AF919F9124
:100AA4008F917F916F915F914F913F912F910F9013
:080AB4000FBE0F901F90189572
:100ABC001F920F920FB60F9211242F933F934F93C7
:100ACC005F936F937F938F939F93AF93BF93EF93AA
:100ADC00FF93E0916000F0916100309709F0099567
:100AEC00FF91EF91BF91AF919F918F917F916F91FA
:100AFC005F914F913F912F910F900FBE0F901F90D0
:020B0C0018953A
:100B0E001F920F920FB60F9211242F933F934F9374
:100B1E005F936F937F938F939F93AF93BF93EF9357
:100B2E00FF93E0916200F0916300309709F0099510
:100B3E00FF91EF91BF91AF919F918F917F916F91A7
:100B4E005F914F913F912F910F900FBE0F901F907D
:020B5E001895E8
:100B60001F920F920FB60F9211242F933F934F9322
:100B70005F936F937F938F939F93AF93BF93EF9305
:100B8000FF93E0916400F0916500309709F00995BA
:100B9000FF91EF91BF91AF919F918F917F916F9155
:100BA0005F914F913F912F910F900FBE0F901F902B
:020BB000189596
:100BB2001F920F920FB60F9211242F933F934F93D0
:100BC2005F936F937F938F939F93AF93BF93EF93B3
:100BD200FF93E0916600F0916700309709F0099564
:100BE200FF91EF91BF91AF919F918F917F916F9103
:100BF2005F914F913F912F910F900FBE0F901F90D9
:020C0200189543
:100C04001F920F920FB60F9211242F933F934F937D
:100C14005F936F937F938F939F93AF93BF93EF9360
:100C2400FF93E0916800F0916900309709F009950D
:100C3400FF91EF91BF91AF919F918F917F916F91B0
:100C44005F914F913F912F910F900FBE0F901F9086
:020C54001895F1
:100C56001F920F920FB60F9211242F933F934F932B
:100C66005F936F937F938F939F93AF93BF93EF930E
:100C7600FF93E0916A00F0916B00309709F00995B7
:100C8600FF91EF91BF91AF919F918F917F916F915E
:100C96005F914F913F912F910F900FBE0F901F9034
:020CA60018959F
:100CA800CF92DF92EF92CF93DF93611571058105A3
:100CB80029F415C00E944407219604C06B01E82E50
:100CC800C0E0D0E0AE2DC6018C0F9D1FA11DD7FD41
:100CD800AA95FC018491A7FD80818111EBCFDF915A
:0A0CE800CF91EF90DF90CF900895B8
:100CF200A1E21A2EAA1BBB1BFD010DC0AA1FBB1F1E
:100D0200EE1FFF1FA217B307E407F50720F0A21B8F
:100D1200B30BE40BF50B661F771F881F991F1A94FC
:100D220069F760957095809590959B01AC01BD0126
:040D3200CF01089550
:100D360041E064E083E00E949D0141E065E083E0DC
:100D46000E949D0141E063E081E00E949D0123E055
:0C0D560040E060E080E00E94710208951F
:100D6200813041F018F0823049F008958BB78064E9
:100D72008BBF08958BB780688BBF08958BB7806255
:040D82008BBF089586
:100D860097B1907E8F71892B87B986B1806486B9B9
:100D96003699FECF24B135B180E0932F822B08958A
:100DA6008091750081110AC081E08093750080935F
:0E0DB6007B0080E00E943E0710927A000895B4
:100DC400A29FB001B39FC001A39F700D811D112488
:0E0DD400911DB29F700D811D1124911D089577
:100DE200813031F018F0823031F008956CBF0895EF
:0A0DF2007BBD6ABD089563BD08953E
:100DFC006115710541F0E82FF0E0EE0FFF1FE05A8E
:080E0C00FF4F7183608308951C
:100E140041E064E083E00E94630340E065E083E036
:060E24000E946303089523
:100E2A008295880F880F807C87B9677066B986B10A
:060E3A00806886B90895EE
:100E4000EC010E944D070E944C07CE010E944E0704
:060E5000CE010E944A07DA
:100E560080917600811105C081E0809376008093B1
:040E66007900089572
:100E6A00CF93C82F0E9483048C2F0E94B106CF9182
:020E7A000895D9
:0C0E7C00682F70E080E00E94F1060895ED
:080E88005D9BFECF8CB90895BB
:040E90000C940000BE
:040E94000E94550063
:020E98000895BB
:020E9A000895B9
:020E9C000895B7
:00000001FF
